:020000021000EC
:10F000000C9472F80C9491F80C9491F80C9491F87B
:10F010000C9491F80C9491F80C9491F80C9491F84C
:10F020000C9491F80C9491F80C9491F80C9491F83C
:10F030000C9491F80C9491F80C9491F80C9491F82C
:10F040000C9491F80C9491F80C9491F80C9491F81C
:10F050000C9491F80C9491F80C9491F80C9491F80C
:10F060000C9491F80C9491F80C9491F80C9491F8FC
:10F070000C9491F80C9491F80C9491F80C9491F8EC
:10F080000C9491F80C9491F80C9491F80C9491F8DC
:10F090000C9491F80C9491F80C9491F80C9491F8CC
:10F0A0000C9491F80C9491F80C9491F80C9491F8BC
:10F0B0000C9491F80C9491F80C9491F80C9491F8AC
:10F0C0000C9491F80C9491F80C9491F80C9491F89C
:10F0D0000C9491F80C9491F80C9491F80C9491F88C
:10F0E0000C9491F811241FBECFEFD1E2DEBFCDBF4B
:10F0F00012E0A0E0B2E0EEE5F8EF01E00BBF02C0E5
:10F1000007900D92A833B107D9F723E0A8E3B2E046
:10F1100001C01D92A334B207E1F70E9489F90C9453
:10F120002DFC0C9400F890913B02913039F49091B1
:10F13000C00095FFFCCF8093C6000895923031F453
:10F140009091C80095FFFCCF8093CE000895CF9397
:10F15000982F8595859585958595805D9F709A30CA
:10F1600014F0C7E501C0C0E3C90F0E9493F88C2FCB
:10F17000CF910C9493F8CF92DF92EF92FF9280910F
:10F180003B028130E9F4C12CD12C76018091C00082
:10F1900087FD13C08FEFC81AD80AE80AF80A81E47D
:10F1A000C81682E4D8068FE0E806F10478F3E0910F
:10F1B0003802F09139020995E9CF8091C60020C04C
:10F1C0008230E9F4C12CD12C76018091C80087FDF2
:10F1D00013C08FEFC81AD80AE80AF80A81E4C816E3
:10F1E00082E4D8068FE0E806F10478F3E091380273
:10F1F000F09139020995E9CF8091CE0001C080E0FD
:10F20000FF90EF90DF90CF900895CF930E94BBF8CE
:10F21000C82F0E9493F8C13614F089EA03C0C033A6
:10F220001CF080ED8C0F01C08C2FCF910895CF93EF
:10F230000E9405F9C82F0E9405F990E1C99F800D31
:10F240001124CF91089590913B02815090F091301C
:10F2500039F42091C00027FFFCCF2091C600F5CFE4
:10F26000923099F72091C80027FFFCCF2091CE0063
:10F27000ECCF0895CF93C82F0E94BBF8803251F491
:10F2800084E10E9493F88C2F0E9493F880E1CF9143
:10F290000C9493F880913A028F5F80933A02853004
:10F2A00031F4E0913802F0913902CF910994CF9175
:10F2B00008950E94BBF8803231F484E10E9493F8F3
:10F2C00080E10C9493F880913A028F5F80933A0228
:10F2D000853029F4E0913802F091390209940895BB
:10F2E0008823B1F02F9A2FEF31EE94E02150304077
:10F2F0009040E1F700C000002F982FEF31EE94E02E
:10F30000215030409040E1F700C000008150E8CF2C
:10F310000895000081E080933B02E0E0F0E0E4919A
:10F3200020E12093C4001092C5001092C00096E026
:10F330009093C20088E18093C10030913B0232304B
:10F3400051F42093CC001092CD001092C8009093FD
:10F35000CA008093C9006898709A279A80913B02EE
:10F360000E9470F9FF24F3940E94BBF8803309F4E3
:10F3700042C08133E1F40E94BBF8803209F049C2F7
:10F3800084E10E9493F881E40E9493F886E50E944C
:10F3900093F882E50E9493F880E20E9493F889E452
:10F3A0000E9493F883E50E9493F880E520C18034A1
:10F3B00039F40E94BBF88638F0F00E94BBF81BC0FD
:10F3C0008134A1F40E94BBF8803811F482E003C0BC
:10F3D000813821F481E00E943AF9C6CF823811F4D5
:10F3E00080E1F9CF8839B9F583E0F5CF823431F483
:10F3F00084E10E9423F90E9459F9B6CF853411F4B3
:10F4000085E0F7CF982F9D7F9035A9F3813599F34B
:10F41000853549F40E94BBF880933C020E94BBF8FA
:10F4200080933D02E8CF8635C1F40E94BBF880335B
:10F4300079F40E94BBF80E94BBF8182F0E94BBF819
:10F44000111102C08EE1C7CF113071F687E9C3CF29
:10F4500083E00E9423F980E0BECF843609F0CDC05E
:10F460000E94BBF880933F030E94BBF880933E0349
:10F47000809142038E7F809342030E94BBF88534C3
:10F4800029F4809142038160809342030EE312E0ED
:10F4900020913E0330913F03C8018E539240821762
:10F4A000930730F40E94BBF8F80181938F01F0CFED
:10F4B0000E94BBF8803209F0ACC18091420380FF0A
:10F4C0002AC080913C0290913D02880F991F909331
:10F4D0003D0280933C020EE312E020913E03309106
:10F4E0003F03C8018E5392408217930708F07EC0F5
:10F4F000F80161918F0180913C0290913D020E9440
:10F500001FFC80913C0290913D02019690933D0238
:10F5100080933C02E2CF80913D02880F880B8F21BF
:10F52000809341038BBF80913C0290913D02880FF4
:10F53000991F90933D0280933C0280913E0380FF8F
:10F5400009C080913E0390913F03019690933F0341
:10F5500080933E03F894F999FECF1127E0913C0285
:10F56000F0913D02CEE3D2E080913E0390913F03C3
:10F57000103091F40091570001700130D9F303E08D
:10F5800000935700E8950091570001700130D9F3BE
:10F5900001E100935700E8950990199000915700F8
:10F5A00001700130D9F301E000935700E8951395FD
:10F5B000103898F011270091570001700130D9F3ED
:10F5C00005E000935700E895009157000170013065
:10F5D000D9F301E100935700E8953296029709F0BC
:10F5E000C7CF103011F00296E5CF112484E10E94BC
:10F5F00093F880E10E9493F8B7CE843709F05CC09D
:10F600000E94BBF880933F030E94BBF880933E03A7
:10F6100020913C0230913D028091420337FF02C0AD
:10F62000826001C08D7F80934203220F331F30938D
:10F630003D0220933C020E94BBF890914203853426
:10F6400011F4916001C09E7F909342030E94BBF829
:10F65000803209F089CE84E10E9493F800E010E046
:10F6600080913E0390913F030817190710F680918F
:10F670004203E0913C02F0913D0280FF04C0CF01C3
:10F680000E9417FC0BC081FD02C0849107C0CF010E
:10F69000A0E0B0E01196ABBFFC0187910E9493F807
:10F6A00080913C0290913D02019690933D0280939F
:10F6B0003C020F5F1F4FD4CF853781F40E94BBF807
:10F6C000803209F0A6C084E10E9493F88EE10E9486
:10F6D00093F887E90E9493F883E089CF863709F48D
:10F6E000BACE813209F095C00E94BBF8813209F090
:10F6F0003BCE0E94BBF8813209F036CE279A2F9874
:10F7000010924003E0914003F0E0EF5FFD4F8081F5
:10F71000882371F00E9493F8809140038F5F80935B
:10F720004003F0CF1F9B18C02F9881E30E9493F8ED
:10F730008AE00E9493F88DE00E9493F88AE30E9489
:10F7400093F880E20E9493F80E94BBF8182F0E9461
:10F7500093F8143721F4E6CF2F9A80E3E7CF1237DE
:10F76000B9F40E94BBF80E9493F80E9417F9182F71
:10F770000E9417F9082F8DE30E9493F8E12FF0E023
:10F78000FE2FEE27E00FF11D80810E94A7F8D0CF59
:10F790001737C1F40E94BBF80E9493F80E9417F932
:10F7A000182F0E9417F9082F0E94BBF80E9493F8A7
:10F7B0000E9417F9E12FF0E0FE2FEE27E00FF11D78
:10F7C0008083B6CF153729F40E94BBF80E9493F8C6
:10F7D000FBCF1236A9F482E60E9493F885E70E94D7
:10F7E00093F883E70E9493F880E885BF1092740035
:10F7F00010927500E0E0F1E181913097E9F7FACFDE
:10F800001A3609F095CFE0913802F0913902099546
:10F810008FCF80913A028F5F80933A02853009F052
:10F82000A3CDE0913802F091390209959DCDF99967
:10F83000FECF92BD81BDF89A992780B50895262FF5
:10F84000F999FECF1FBA92BD81BD20BD0FB6F894C5
:0EF85000FA9AF99A0FBE01960895F894FFCF28
:10F85E008041546D656761424F4F54202F20417295
:10F86E006475696E6F204D656761202D20284329D0
:10F87E002041726475696E6F204C4C43202D2030F0
:08F88E0039303933300A0D0056
:040000031000F000F9
:00000001FF
