:107800000C94343C0C94513C0C94513C0C94513CE1
:107810000C94513C0C94513C0C94513C0C94513CB4
:107820000C94513C0C94513C0C94513C0C94513CA4
:107830000C94513C0C94513C0C94513C0C94513C94
:107840000C94513C0C94513C0C94513C0C94513C84
:107850000C94513C0C94513C0C94513C0C94513C74
:107860000C94513C0C94513C11241FBECFEFD8E036
:10787000DEBFCDBF11E0A0E0B1E0E4ECFDE702C067
:1078800005900D92A230B107D9F722E0A2E0B1E055
:1078900001C01D92AD30B207E1F70E940A3D0C9481
:1078A000E03E0C94003C9091C00095FFFCCF80938B
:1078B000C6000895CF93982F8595859585958595D4
:1078C000805D9F709A3014F0C7E501C0C0E3C90F16
:1078D0000E94533C8C2FCF910C94533CCF92DF925B
:1078E000EF92FF92C12CD12C76018091C00087FDD0
:1078F00013C08FEFC81AD80AE80AF80A81E4C8163C
:1079000082E4D8068FE0E806F10478F3E091020102
:10791000F09103010995E9CF8091C600FF90EF90A7
:10792000DF90CF900895CF930E946E3CC82F0E94A5
:10793000533CC13614F089EA03C0C0331CF080ED1B
:107940008C0F01C08C2FCF910895CF930E94933C50
:10795000C82F0E94933C90E1C99F800D1124CF91C4
:107960000895CF93C82FCC2321F00E946E3CC150C4
:10797000FACFCF910895CF93C82F0E946E3C8032EA
:1079800051F484E10E94533C8C2F0E94533C80E1CF
:10799000CF910C94533C809104018F5F809304013C
:1079A000853031F4E0910201F0910301CF91099407
:1079B000CF9108950E946E3C803231F484E10E94A0
:1079C000533C80E10C94533C809104018F5F809381
:1079D0000401853029F4E0910201F091030109943A
:1079E00008958823B1F02D9A2FEF31EE94E02150C5
:1079F00030409040E1F700C000002D982FEF31EEAD
:107A000094E0215030409040E1F700C000008150E8
:107A1000E8CF08950000E0E0F0E0E49180E1809399
:107A2000C4001092C50088E18093C10086E0809375
:107A3000C2005098589A259A81E00E94F13CFF2498
:107A4000F3940E946E3C803309F442C08133E1F428
:107A50000E946E3C803209F0A5C184E10E94533C33
:107A600081E40E94533C86E50E94533C82E50E94DB
:107A7000533C80E20E94533C89E40E94533C83E5DE
:107A80000E94533C80E585C1803439F40E946E3CED
:107A90008638F0F00E946E3C1BC08134A1F40E9435
:107AA0006E3C803811F482E003C0813821F481E01B
:107AB0000E94BB3CC6CF823811F480E1F9CF8839EF
:107AC000C9F583E0F5CF823431F484E10E94B13C02
:107AD0000E94DA3CB6CF853411F485E0F7CF982FB9
:107AE0009D7F9035A9F3813599F3853549F40E943E
:107AF0006E3C809306010E946E3C80930701E8CFA4
:107B00008635D1F40E946E3C803389F40E946E3C2D
:107B10000E946E3C182F0E946E3C111102C08EE133
:107B2000C7CF113011F485E9C3CF84E1C1CF83E021
:107B30000E94B13C80E0BCCF843609F0C5C00E94F1
:107B40006E3C809309020E946E3C809308028091F3
:107B50000C028E7F80930C020E946E3C853429F4C7
:107B600080910C02816080930C0208E011E020916A
:107B7000080230910902C80188509140821793078A
:107B800030F40E946E3CF80181938F01F0CF0E9487
:107B90006E3C803209F006C180910C0220910601F2
:107BA0003091070180FF29C0220F331F3093070156
:107BB00020930601E8E0F1E02091080230910902EB
:107BC000CF01885091408217930708F0E1C0F999DE
:107BD000FECF809106019091070192BD81BD8191F8
:107BE00080BDFA9AF99A8091060190910701019659
:107BF0009093070180930601DFCF80910701880FE2
:107C0000880B8F2180930B02220F331F30930701C3
:107C1000209306018091080280FF09C0809108022C
:107C20009091090201969093090280930802F894BA
:107C3000F999FECF1127E0910601F0910701C8E004
:107C4000D1E08091080290910902103091F40091E6
:107C5000570001700130D9F303E000935700E89515
:107C60000091570001700130D9F301E100935700F2
:107C7000E895099019900091570001700130D9F3EF
:107C800001E000935700E8951395103498F0112700
:107C90000091570001700130D9F305E000935700BF
:107CA000E8950091570001700130D9F301E100938C
:107CB0005700E8953296029709F0C7CF103011F0BF
:107CC0000296E5CF112464C0843709F052C00E94A7
:107CD0006E3C809309020E946E3C80930802809162
:107CE000060190910701880F991F909307018093D7
:107CF00006010E946E3C90910C02853411F4916053
:107D000001C09E7F90930C020E946E3C803209F06D
:107D100098CE84E10E94533C00E010E0809108027C
:107D20009091090208171907B0F580910C0280FFA5
:107D30000BC0F999FECF809106019091070192BD89
:107D400081BDF89A80B507C081FD07C0E0910601AA
:107D5000F091070184910E94533C8091060190911B
:107D60000701019690930701809306010F5F1F4F53
:107D7000D5CF8537A1F40E946E3C803299F484E11E
:107D80000E94533C8EE10E94533C85E90E94533C83
:107D900084E10E94533C80E10E94533C52CE8637DE
:107DA00009F4C8CE809104018F5F8093040185306F
:107DB00009F047CEE0910201F0910301099541CE0F
:047DC000F894FFCF65
:027DC40080003D
:040000030000780081
:00000001FF
